:020000040800F2
:1000000000090020B1010008952300084D230008D5
:10001000752300084D2300086D230008B301000874
:10002000B3010008B3010008B3010008513400080F
:10003000B3010008B3010008B3010008B3010008D0
:10004000B3010008B3010008B3010008B3010008C0
:10005000B3010008B3010008B3010008B3010008B0
:10006000B3010008B3010008B3010008B3010008A0
:10007000B3010008B3010008B3010008B301000890
:10008000B3010008B3010008B30100080123000810
:100090002D2300083D230008B3010008B301000828
:1000A000B3010008B3010008B3010008B301000860
:1000B000A9410008B3010008B3010008B30100081A
:1000C000B3010008B3010008B3010008B301000840
:1000D000B3010008B3010008B3010008B301000830
:1000E000B3010008B3010008B3010008B301000820
:1000F000B3010008B3010008B3010008B301000810
:10010000B3010008B3010008B3010008B3010008FF
:10011000B3010008B3010008B3010008B3010008EF
:10012000B3010008B3010008B3010008B3010008DF
:10013000B3010008B3010008B3010008B3010008CF
:10014000B3010008B3010008B3010008B3010008BF
:10015000B3010008B3010008B3010008B3010008AF
:10016000B3010008B3010008B3010008B30100089F
:10017000B3010008B3010008B3010008B30100088F
:10018000B3010008B3010008B3010008B30100087F
:10019000B3010008B3010008B3010008B30100086F
:1001A000010F000800000000000000000000000037
:1001B00002E000F000F8FEE772B6374880F30888E6
:1001C000364880F3098836483649086040F2000016
:1001D000CCF200004EF63471CEF200010860BFF39D
:1001E0004F8FBFF36F8F40F20000C0F2F0004EF669
:1001F0008851CEF200010860BFF34F8FBFF36F8FBD
:100200004FF00000E1EE100A4EF63C71CEF2000114
:100210000860062080F31488BFF36F8F03F0E0FDC1
:1002200003F062FE4FF055301F491B4A91423CBF1C
:1002300041F8040BFAE71D49184A91423CBF41F8C6
:10024000040BFAE71A491B4A1B4B9A423EBF51F86E
:10025000040B42F8040BF8E700201849184A9142B1
:100260003CBF41F8040BFAE703F0BEFD03F08EFE3D
:10027000144C154DAC4203DA54F8041B8847F9E7D7
:1002800000F042F8114C124DAC4203DA54F8041B52
:100290008847F9E703F0A6BD0009002000110020FF
:1002A0000000000808ED00E0000100200009002027
:1002B00050430008001100207C1100208011002014
:1002C000843A0020A0010008A4010008A40100084D
:1002D000A40100082DE9F04F2DED108AC1F80CD0D3
:1002E000C3689D46BDEC108ABDE8F08F002383F300
:1002F00011882846A047002003F01AFAFEE703F011
:10030000A3F900DFFEE70000F8B500F00BFE03F0F4
:1003100009FD074603F05AFD0646C0BB274B9F4226
:1003200035D001339F4235D0254B27F0FF029A424A
:1003300033D1F8B200F03AFC354642F2107400F0C6
:100340003BFC08B10024254601F0E2F848B3032045
:1003500000F03AF80024254636B11A4B9F4203D0EC
:1003600003F02CFD00242546002003F0E5FC0DB130
:1003700000F040F800F054FC02F014F80546ACB967
:1003800000F096FC4FF47A7003F0D8F9F7E73546A1
:100390000024D4E704460125D1E705464FF47A74DA
:1003A000CDE7B4F57A7F08BF0125D5E701F0FAFF64
:1003B000431BA342E4D900F01DF8DDE7010007B0BC
:1003C000000008B0263A09B0084B187003280CD872
:1003D000DFE800F008050208022000F001BE02205C
:1003E00000F0F4BD024B00225A60704780110020DB
:1003F0008411002010B501F08BF830B1234B03229B
:100400001A70234B00225A6010BD224B224A1C4610
:1004100019680131F8D004339342F9D16268A242DD
:10042000F2D31E4B9B6803F1006303F520439A420D
:10043000EAD203F095FC03F0A7FC002000F08CFD4D
:100440000220FFF7C1FF164B9A6D00229A65996F43
:100450009A67996FD96DDA65D96FDA67D96F196EB6
:100460001A66D3F88010C3F88020D3F8803072B6B3
:100470004FF0E0233021C3F8084DD4E9003281F376
:1004800011889D4683F308881047BDE7801100203E
:100490008411002000A0000820A000080011002006
:1004A00000100240094A136849F2690099B21B0C16
:1004B00000FB01331360064B186844F2506182B2AE
:1004C000000C01FB0200186080B27047141100207C
:1004D0001011002010B500211022044600F09AFDF2
:1004E000034B03CB206061601868A06010BD00BFA3
:1004F0009075FF1FF0B5ADF54F7D6CAC4FF4C47235
:1005000007460D462046002100F084FD01F04AFF19
:10051000264B4FF47A72B0FBF2F0186093E80700B4
:10052000022384E807000DF5E9702382FFF7D2FF6C
:1005300042F204631E49238407A803F0A5FE172393
:1005400084F832310DF2E32207AB0DF12C0C1E467C
:1005500003CE664510605160334602F10802F6D1C1
:1005600030681060B188B37993710DAE91802046E8
:100570003146012200F09AFD00230393AB7E0293E3
:1005800005F11903019380B20123CDE904600093C2
:10059000E97E04A3D3E90023384602F021FB0DF5E0
:1005A0004F7DF0BD9E6AC421818A46EE8C110020E9
:1005B000984200082DE9F0412C4C237ADAB08046AD
:1005C0000D465BBB27A9284600F096FE074600288B
:1005D00042D19DF89D60C82E3ED801464FF4A662D8
:1005E000204600F017FD4FF48073C4F8F8314FF443
:1005F0000073C4F80C334FF44073C4F8203432460F
:100600000DF19E0104F1090000F0F2FC26449DF872
:100610009C30777223720BB9EB7E2372812200210A
:1006200006AC27A800F0F6FC0122214627A800F01E
:10063000A9FE00230393AB7E029305F1190380B258
:1006400001932823CDE904400093E97E05A3D3E973
:100650000023404602F0C4FA5AB0BDE8F08100BF62
:10066000AFF3008026417272DF25D7B7D421002076
:10067000F0B5254E4FF48A7505FB0065F1B096F88C
:10068000D83085F8DC300024D822214685F8E840AF
:100690003AA800F0BFFC06F1090000F0B3FCD5F861
:1006A000E4308DF8F000C2B206AF06F109010DF199
:1006B000F100CDE93A3400F09BFC394601223AA81A
:1006C00000F096FE80B2CDE9047008230127CDE941
:1006D000023706F1D803019330230093317A0B4897
:1006E00007A3D3E9002302F07BFAA04206DD01F064
:1006F00059FEC5F8E000384671B0F0BD2046FBE772
:1007000078F6339F93CACD8DD4210020A4210020F8
:100710002DE9F0411D4D1E4E1E4F86B0284602F0B9
:100720008BFA034658B30024CDE90344ADF81440D6
:10073000027B8DF8142099684068029403AA03C2D2
:100740001B68DFF8548043F00043029301F02CFE55
:10075000821941F10003009402A9384601F0C0F863
:10076000A04205DD284602F06BFA88F80040D5E784
:1007700098F80030072B05D8013388F8003006B010
:10078000BDE8F081014802F05BFAF8E7A4210020FF
:1007900040420F00102700200927002070B50D46A9
:1007A00014461E4602F078F950B9022E10D1012CE1
:1007B0000ED112A3D3E90023C5E90023012007E0ED
:1007C000282C10D005D8012C09D0052C0FD00020E2
:1007D00070BD302CFBD10BA3D3E90023ECE70BA3B6
:1007E000D3E90023E8E70BA3D3E90023E4E70BA355
:1007F000D3E90023E0E700BFAFF30080401DA12054
:1008000026812A0B78F6339F93CACD8D9E6AC42128
:10081000818A46EE26417272DF25D7B7F017304A3B
:1008200039059E5638B505460E4C0021013500F0BD
:10083000B5FBA4F82C55B4F82C0500F097FB78B163
:10084000B4F82C0500F0A2FB014648B9B4F82C0519
:1008500000F0A4FBB4F82C350133A4F82C35EAE7FA
:1008600038BD00BFD421002010B50A4B0A4A1A60D7
:1008700003F5805393F870203AB9DC6E2CB1204612
:1008800000F0C4FE204601F001F8BDE81040034826
:1008900000F0BCBE10270020EC42000868370020A2
:1008A0002DE9F04F8FB000AF05460C4602F0F4F88A
:1008B00000284BD1237E022B1BD1E38A012B18D1B8
:1008C00001F070FD0646FFF7EDFD03464FF4C870DA
:1008D000DFF8D482B3FBF0F206F5167602FB103394
:1008E00016FA83F3C8F80030E37E33B9A74B002231
:1008F0001A703C37BD46BDE8F08F07F12401204651
:1009000000F0AEFC0028F4D107F11400FFF7E2FD7F
:1009100097F8264007F11401224607F1270003F05B
:1009200081FC0028E2D10F2C08D8984B1C70D8F815
:100930000030A3F51673C8F80030DAE797F82410F2
:100940000029D6D0284602F09FF8D2E7E38A282B68
:1009500033D010D8012B2BD0052BCAD1BFF34F8F2A
:100960008B498C4BCA6802F4E0621343CB60BFF33F
:100970004F8F00BFFDE7302BBBD1874EE17E327A2F
:100980009142B6D1607E3146002291F8DC5085421A
:1009900000F0AD800132042A01F58A71F5D1326888
:1009A00040F6B831FA328A4294BF32603160A0E733
:1009B00021462846FFF79EFD9BE721462846FFF784
:1009C000F9FD96E7B2F8EC507B6005F103094FEAB8
:1009D00099094FEA8902D11DC908A8EBC1039D46B8
:1009E000EB460021584600F015FB04F1EE012A46C3
:1009F0003144584600F0FCFA7B6813B9012000F03E
:100A0000ABFA96F8D20000F0B1FA044630B9307271
:100A100000F0CCFA204600F09FFAB0E0D6F8D420DF
:100A20003AB996F8D200B6F82C25824201D8FFF7E1
:100A3000F9FED6F8D4202A44944208D296F8D2007F
:100A4000B6F82C250130824201D8FFF7EBFE706822
:100A50005FFA89F2594600F0E5FA08B9C54679E02F
:100A6000726896F8D2002A447260D6F8D42005EB5A
:100A70000209C6F8D49000F079FA814509D396F8B6
:100A8000D220D6F8D4000132001B86F8D220C6F856
:100A9000D400FF2D0FD80024347200F087FA2046CE
:100AA00000F05AFA00F034FD3C4B188108B9FFF70A
:100AB000A1FCC5461DE7BB6896F8D9000AFB036296
:100AC000FB68D2F8E41082F8E83001F58061C2F8E2
:100AD000E030C2F8E410FFF7CBFDFFF719FE96F8FF
:100AE000D920013202F0030286F8D920B6E74FF48C
:100AF0008A7A0AFB02F505F1EA013144204600F04A
:100B0000ABFCF86000287FF4F4AE3544012285F890
:100B1000E82001F047FCD5F8E020D6ED007ADFEDC3
:100B2000206A801A192838BF192040F6B83290423E
:100B300028BF1046B8EE677A07EE900AF8EEE77A1B
:100B400067EEA67ADFED176AE7EE267AFCEEE77A23
:100B5000C6ED007A96F8D9307168BB600AFB03F4E1
:100B6000321992F8E8505DB1D2F8E4308B42E84691
:100B70003FF428AF002182F8E810C2F8E010C54623
:100B80007368064A9B0A01331381B2E69D21002057
:100B900000ED00E00400FA05D42100208C110020B3
:100BA000CDCCCC3D6666663FA0210020014B18707D
:100BB000704700BF9811002038B54FF00054144B17
:100BC00022689A4221D1607DF0B1124B124918700F
:100BD0001248237D03724FF48073C0F8F8314FF44C
:100BE0000073C0F80C3300254FF44073C0F8203474
:100BF000C0F8E450C922093000F0FAF9E022294691
:100C0000204600F007FA012038BD0020FCE700BFB5
:100C10009AAD44C59811002016000020D421002070
:100C200037B500F075FC194D1949288102230122BE
:100C300018486B7101F050FA00230193164B1749C5
:100C400000931748174B4FF4805201F0F5FE164BF6
:100C5000197811B1124801F017FF01F0A3FB044607
:100C6000FFF720FC4FF4C873B0FBF3F202FB130351
:100C700004F5167010FA83F00C4B186003F0A6F818
:100C800008B10F232B8103B030BD00BF8C110020B1
:100C900040420F00102700209D0700089C110020F3
:100CA000A4210020A108000898110020A021002004
:100CB0002DE9F04F2DED028B0FF23829D9E900898B
:100CC000834C93B00BAE9FED7E8BFFF721FD814FE0
:100CD000DFF828A200230A93ADF834300B93736039
:100CE0004FF0000B5B468DED008B01250DF11D02D1
:100CF00007A938468DF81C508DF81DB001F09AF9FF
:100D00009DF81C30002B40F0A580204601F0C4FE69
:100D10000646002845D1704F01F044FB3B689842DD
:100D20003FD301F03FFB8246FFF7BCFB4FF4C87393
:100D3000B0FBF3F202FB13030AF5167010FA83F00E
:100D40003860664F97F800B0CBF1100ABBF1000F86
:100D500014BF33462B465FFA8AFA0EA88DF8283066
:100D6000FFF7B8FBBAF1060F28BF4FF0060A0EAB2B
:100D700003EB0B0152460DF1290000F039F90AABE3
:100D80000393182302930AF10102554BD2B2CDE925
:100D90000053049220464CA3D3E9002301F0C2FE85
:100DA0003E7001F0FFFA4F4A4F4D1368C31AB3F576
:100DB0007A7F2ED3106001F0F7FA02460B462046E8
:100DC00001F048FF204601F067FE10B32B7A474E32
:100DD000002B14BF03230223737101F0E3FA0EAF5B
:100DE0004FF47A730122B0FBF3F03946306030469D
:100DF00000F00EFA182302933D4B019380B240F2AB
:100E00005513CDE90370009342464B46204601F04E
:100E100089FE2B7A93B101F0C5FA002607464FF4FC
:100E20008A7A95F8D900304400F003000AFB005399
:100E300093F8E82092B30136042EF2D1C82002F0D4
:100E40007DFC2B7A002B7FF43DAF13B0BDEC028B01
:100E5000BDE8F08FDAF8143083F00803CAF81430D4
:100E6000594610220EA800F0D5F80DF11E0308AA6D
:100E70000AA9384600F03AFE96E803000FAB83E873
:100E800003009DF834308DF844300A9B0E930EA970
:100E9000DDE90823204602F0B1F821E7D3F8E0208D
:100EA00042B12B68FA2B38BFFA23BA1A0533B2EBDA
:100EB000430FC0D3FFF7DCFB0028BCD1BEE700BF67
:100EC0000000000000000000401DA12026812A0B28
:100ED000A421002010270020A02100209D21002017
:100EE0009C21002004270020D42100208C11002008
:100EF00008270020F1C6A7C1D068080F00040048E9
:100F000008B5054800F090FEBDE80840034A0449D2
:100F1000002003F063B900BF102700203038002004
:100F20006908000870B502F0A5FD094E094D308032
:100F3000002428683388834208D902F097FD2B6883
:100F400004440133B4F5204F2B60F2D370BD00BFD1
:100F500024380020F837002002F03EBE00F1006087
:100F6000920000F5204002F0C1BD0000054B1A6858
:100F7000054B1B889B1A834202D9104402F076BDB0
:100F800000207047F837002024380020024B1B68EF
:100F9000184402F071BD00BFF8370020024B1B68F7
:100FA000184402F07BBD00BFF8370020064991F8D5
:100FB000243033B10023086A81F824300822FFF777
:100FC000CDBF0120704700BFFC370020022802BFC0
:100FD000024B4FF400229A61704700BF00040048A2
:100FE000022802BF014B08229A61704700040048A2
:100FF00010B50023934203D0CC5CC4540133F9E70D
:1010000010BD000003460246D01A12F9011B002948
:10101000FAD1704702440346934202D003F8011B01
:10102000FAE770472DE9F8431F4D144695F8242040
:101030000746884652BBDFF870909CB395F8243081
:101040002BB92022FF2148462F62FFF7E3FF95F8D6
:101050002400C0F10802A24228BF2246D6B241466F
:10106000920005EB8000FFF7C3FF95F82430A41B26
:101070001E44F6B2082E17449044E4B285F824606A
:10108000DBD1FFF793FF0028D7D108E02B6A03EBF1
:1010900082038342CFD0FFF789FF0028CBD1002005
:1010A000BDE8F8830120FBE7FC3700202DE9F3477A
:1010B0000D46044600219046284640F27912FFF77B
:1010C000A9FF234620220021284601F039FF231DD5
:1010D00002222021284601F033FF631D0322222132
:1010E000284601F02DFFA31D03222521284601F0EB
:1010F00027FF04F1080310222821284601F020FFD1
:1011000004F1100308223821284601F019FF04F1E8
:10111000110308224021284601F012FF04F11203B6
:1011200008224821284601F00BFF04F11403202275
:101130005021284601F004FF04F1180340227021D9
:10114000284601F0FDFE04F120030822B0212846C4
:1011500001F0F6FE04F121030822B821284601F02F
:10116000EFFE04F12207C0263B46314608222846FE
:10117000083601F0E5FEB6F5A07F07F10107F3D1CF
:1011800094F832308DF8073031460DF1070308220C
:10119000284601F0D5FE002604F1330A9DF80730F9
:1011A0004FEAC6099E4209F5A47720D394F832315C
:1011B000502B28BF50238DF80730B8F1000F08D10D
:1011C00039460DF107030722284601F0B9FE09F25E
:1011D0004F17002604F233149DF807309E4207EBA8
:1011E000C6010DD30731C80802B0BDE8F0870AEB8D
:1011F000060308223946284601F0A2FE0136CDE753
:10120000A3190822284601F09BFE0136E4E70000FE
:1012100013B504460846002101602346C0F80310B8
:101220002022019001F08CFE0198231D0222202132
:1012300001F086FE0198631D0322222101F080FE49
:101240000198A31D0322252101F07AFE019804F1E3
:1012500008031022282101F073FE072002B010BD00
:10126000F7B5047F05460E462CB1838A122B02D9AE
:10127000012003B0F0BD002319460722009628463E
:1012800001F022FD731C0093012200230721284650
:1012900001F01AFDD4B9B31C00930522234608219E
:1012A000284601F011FD0D24B378102BE0D8374605
:1012B000B278BB1B934210D32B7FA88A0734E40873
:1012C000B3B9844294BF00200120D2E7AB8ADB008F
:1012D000083BDB08B3700824E6E7FB1C00932146BB
:1012E00000230822284601F0EFFC08340137DFE72D
:1012F000201A18BF0120BCE7F7B5047F05460E464B
:101300002CB1838ACA2B02D9012003B0F0BD00237F
:10131000194600960822284601F0D6FC731CD4B961
:101320000822009311462346284601F0CDFC1024E4
:101330007378C82BE8D8012372785F1C013B934275
:1013400010D32B7FA88A0734E408B3B9844294BF32
:1013500000200120D9E7AB8ADB00083BDB08737073
:101360000824E5E7F31900932146002308222846C4
:1013700001F0AAFC08343B46DEE7201A18BF012022
:10138000C3E70000F7B50D4604460021164628467F
:101390008122FFF73FFE234608220021284601F064
:1013A000CFFD94F901206378002AB8BF7F238DF820
:1013B00007309EB90DF1070307220821284601F0E6
:1013C000BFFD0F27002602349DF807309E4207EB31
:1013D000C60105D30731C80803B0F0BD0827F1E7FF
:1013E000A3190822284601F0ABFD0136ECE7000006
:1013F000F7B50E460546002114463046CE22FFF7CB
:1014000009FE2B4628220021304601F099FD2B7A57
:10141000C82B28BFC8238DF807308CB90DF10703FE
:1014200008222821304601F08BFD30242F469DF8FC
:1014300007207B1B934205D3E01DC00803B0F0BD1D
:101440002824F3E707F1090321460822304601F07A
:1014500077FD08340137EAE7F7B5047F05460E4605
:1014600034B1838AB3F5827F02D9012003B0F0BD85
:101470000096012310220021284601F025FCDCB94A
:10148000B31C0093092223461021284601F01CFCBE
:1014900019247388B3F5807FE7D837467288BB1B61
:1014A000934210D32B7FA88A0734E408B3B984424F
:1014B00094BF00200120D9E7AB8ADB00103BDB089A
:1014C00073801024E5E73B1D00932146002308228A
:1014D000284601F0F9FB08340137DFE7201A18BF6E
:1014E0000120C3E730B5094D0A4491420DD011F8EF
:1014F000013B5840082340F30004013B2C4013F00B
:10150000FF0384EA5000F6D1EFE730BD2083B8ED49
:10151000F7B5384A106851686B4603C36A463649C6
:101520003648082302F08EFE0446002833D10A25EF
:10153000334A106851686B4603C36A4631492F48E5
:10154000082302F07FFE0446002849D00369B3F562
:10155000583F45D8B0F8661040F2264291423FD13C
:10156000294A024402F15C018B4239D35C3B234996
:1015700000209E1AFFF7B6FF3246074604F16401C9
:101580000020FFF7AFFFA3689F4229D1E36898428C
:1015900008BF002524E00369B3F5583F27D8418BE5
:1015A00040F22642914220D1174A024402F1100132
:1015B0008B4218D3103B114900209D1AFFF792FF70
:1015C0002A46064604F118010020FFF78BFFA368A6
:1015D0009E4202D1E368984201D00D25A8E700257C
:1015E000284603B0F0BD1025A2E70C25A0E70B2587
:1015F0009EE700BFB0420008DC5F030000A00008C7
:10160000B9420008905F03000860FFF710B5037C43
:10161000044613B9006802F0FDFD204610BD00002D
:101620000023BFF35B8FC360BFF35B8FBFF35B8FA0
:101630008360BFF35B8F7047BFF35B8F0068BFF3BE
:101640005B8F704770B505460C30FFF7F5FF05F16D
:10165000080604463046FFF7EFFFA04206D93046A1
:101660006D68FFF7E9FF2544281A70BD3046FFF783
:10167000E3FF201AF9E7000070B50546406898B10D
:1016800005F10800FFF7D8FF05F10C0604463046C7
:10169000FFF7D2FF8442304694BF6D680025FFF704
:1016A000CBFF013C2C44201A70BD000038B50C461D
:1016B0000546FFF7C7FFA04210D305F10800FFF76A
:1016C000BBFF04446868B4FBF0F100FB1144BFF3B6
:1016D0005B8F0120AC60BFF35B8F38BD0020FCE75F
:1016E0002DE9F041144607460D46FFF7C5FF844239
:1016F00028BF0446D4B1B84658F80C6B4046FFF7F3
:101700009BFF3044286040467E68FFF795FF331A00
:101710009C4203D86C600120BDE8F0816B60A41B83
:101720003B68AB602044E8600220F5E72046F3E721
:1017300038B50C460546FFF79FFFA04210D305F1D0
:101740000C00FFF779FF04446868B4FBF0F100FB7C
:101750001144BFF35B8F0120EC60BFF35B8F38BD9A
:101760000020FCE72DE9FF41884669460746FFF760
:10177000B7FF6C4606B204EBC6060025B44209D09A
:101780006268206808EB0501FFF732FC63680834E3
:101790001D44F3E729463846FFF7CAFF284604B040
:1017A000BDE8F081F8B505460C300F46FFF744FF61
:1017B00005F1080604463046FFF73EFFA0423046DA
:1017C00088BF6C68FFF738FF201A386020B13046B8
:1017D0002C68FFF731FF2044F8BD000073B51446B4
:1017E00006460D46FFF72EFF844228BF04460190AF
:1017F000DCB101A93046FFF7D5FF019B33B9326850
:10180000C5E90233C5E9002401200CE09C4238BF41
:1018100001942860019868608442F5D93368AB6010
:10182000241AEC60022002B070BD2046FBE70000E5
:101830002DE9FF410F466946FFF7D0FF6C4600B225
:1018400004EBC0050026AC4209D0D4F8048054F85B
:10185000081BB8194246FFF7CBFB4644F3E7304676
:1018600004B0BDE8F081000038B50546FFF7E0FFA1
:10187000044601462846FFF719FF204638BD000000
:101880000121884238BF084602F0AEBC08B102F020
:10189000C1BC704710B4026854681A4623465DF80C
:1018A000044B184700207047002070477047000025
:1018B000002070470E20704700F5805090F8D80047
:1018C000C0F340007047000000F5805090F9E00040
:1018D0007047000000F58050C0F8DC100120704710
:1018E000F7B50C68BDF8207014F0005473D10D7B6F
:1018F000082D70D8302585F31188456AAE687601C9
:101900000CD4AC68240108D4AC6814F0805460D1C5
:1019100084F31188204603B0F0BD01240E6804F161
:10192000180C002EB8BFF6004FEA0C1CB4BF46F0EE
:101930000406760545F80C600E680FFA84FC16F074
:10194000804F18BF05EB0C1E05EB0C1C1EBFDEF80C
:10195000806146F00206CEF880610E7BCCF884618F
:1019600005EB04158E68C5F88C614E68C5F8886172
:10197000DCF8805145F00105CCF8805141F2780542
:1019800000EB441C660105EB4414AC440444CCE970
:1019900000230D46083401F10C0C55F804EB44F813
:1019A00004EB6545F9D12D882580841904F5805410
:1019B00007F0030594F8946026F00B06354384F88D
:1019C0009450002484F31188009700F03BFD01201F
:1019D000A1E70224A2E74FF0FF309CE713B500F522
:1019E00080540191E06EFFF747FE1F280AD9019944
:1019F000E06E2022FFF7B6FEA0F1200358425841C6
:101A000002B010BD0020FBE708B5302383F3118836
:101A100000F58050C06EFFF703FE002383F31188AA
:101A200008BD00000022026082814260826070472F
:101A300010B500220023C0E90023002304460381DF
:101A40000C30FFF7EFFF204610BD0000F0B5054653
:101A500000F580500C4690F8D83013F0040FC3F313
:101A6000800108BF114661F3820380F8D83005EB8E
:101A7000441303F58453103389B01B79D8074FEA18
:101A800044162FD582B319072ED46846FFF7D0FF2E
:101A900005EB441303F5845303AA03F10807186800
:101AA0005968144603C40833BB422246F7D118686C
:101AB00020609B88A380DDE90E23CDE9002301236C
:101AC000ADF808302B6869461B6C284698473544AA
:101AD00005F5845510352B791A075CBF43F00803D0
:101AE0002B7101E0002AF2D109B0F0BD2DE9F047D9
:101AF0009A4688B0074688469146302383F311887A
:101B000007F580546846FFF793FFE06EFFF79AFDF4
:101B10001F282AD9E06E20226946FFF7A5FE20285B
:101B200023D103AD444605AB2E4603CE9E42206032
:101B30006160354604F10804F6D130682060B3884E
:101B4000A380DDE90023C9E90023BDF80830AAF825
:101B50000030002383F3118853464A4641463846F5
:101B600008B0BDE8F04700F02BBC002080F31188DE
:101B700008B0BDE8F08700002DE9F84F18220446B0
:101B80000F4604300021FFF745FA2046234B40F86A
:101B9000283BFFF747FF04F13800FFF749FF04F146
:101BA000580804F582554646183530462036FFF76A
:101BB0003FFFAE42F9D104F580554FF480534FF00A
:101BC0000009C5E91739C5F858800123EE6604F508
:101BD000875804F58456C5F8649085F8683085F810
:101BE0007030183608F118084FF0000A4FF0000B5B
:101BF00046E908ABA6F11800FFF714FF203646F8B7
:101C0000289C4645F4D185F8E07017B1044800F0EF
:101C1000C3FB044B63622046BDE8F88FEC4200082A
:101C2000C44200080064004010B5044B1978044613
:101C30004A1C1A70FFF7A0FF204610BD2C38002068
:101C40002DE9F047002950D0294B2A4FB7FBF1F579
:101C500099428CBF0A231123581EB5FBF3FC03FBEA
:101C60001C53C4B22BB102280346F5D80020BDE8AE
:101C7000F0870CF1FF36B6F5806FF7D2C4EBC40ED7
:101C80000EF103034FEAE309C3F3C703A4EB030810
:101C900009F1010A4FF47A755FFA88F009FB0555DE
:101CA0005AFA88F8B5FBF8F5B5F5617FC1BF0EF1BA
:101CB000FF33C3F3C703E01AC0B25C1C50FA84F4CC
:101CC0000CFB04F4B7FBF4F4A142CFD1013BDBB22F
:101CD0000F2BCBD80138C0B20728C7D8002110710C
:101CE00016809170D3700120C1E70846BFE700BF9E
:101CF0003F420F0000B4C40470B505460E464FF4D1
:101D00007A746B6A5B6803F00103B34207D04FF447
:101D10007A7001F013FD013CF3D1204670BD012023
:101D2000FCE7000070B5426A936913F0700F17D09A
:101D300000230C4D936141F2900400EB43122244C6
:101D400011794E0709D5890707D5416A55F82360EF
:101D50008E60117941F0040111710133032BECD134
:101D600070BD00BFD842000873B51D46436A1646D1
:101D70009A68D207044609D59A6801219960C2F38E
:101D80004002CDE900650021FFF760FE636A9A68B2
:101D9000D1050BD59A684FF480719960C2F3402247
:101DA000CDE9006501212046FFF750FE636A9A687D
:101DB000D2030BD59A684FF480319960C2F3404248
:101DC000CDE9006502212046FFF740FE04F580536F
:101DD000D3F8DC0010B103681B699847204602B0B5
:101DE000BDE87040FFF79EBFF8B50446466A00297B
:101DF00077D106F10C073868800775D006EB01151E
:101E00003868D5F8B00110F0040FD5F8B0011ABF4A
:101E1000C00840F00040400DA062D5F8B0C11CF0F1
:101E2000020F1CBF40F08040A062D5F8B40106EB61
:101E3000011100F00F0084F83400D1F8B80184F8E3
:101E40002C00D1F8B801000A84F82D00D1F8B801AF
:101E5000000C84F82E00D1F8B801000E84F82F0091
:101E6000D1F8BC0184F83000D1F8BC01000A84F834
:101E70003100D1F8BC01000C84F83200D1F8BC115B
:101E8000090E84F833103821396004F1440004F15C
:101E9000280104F1340551F8046B40F8046BA942A1
:101EA000F9D109880180C4E90E2321460023A4F852
:101EB000403051F8383B20461B6C984704F580535E
:101EC00093F8D820D3F8DC0042F0040283F8D8203D
:101ED00010B103681B6998472046BDE8F840FFF73A
:101EE00021BF06F1100786E7F8BD000010B50446D3
:101EF00000F05AFA02460B4652EA030102D0013AB8
:101F000063F100030449086820B12146BDE8104090
:101F1000FFF76ABF10BD00BF28380020F0B53021A0
:101F200081F31188DFF848E000F58351183100246F
:101F300041F2900C00EB441565442E7977070ED4DE
:101F4000F6060CD5D1E9007697429E4107D2466A43
:101F50005EF82470B7602E7946F004062E710134C5
:101F6000032C01F12001E5D1002383F31188F0BD9A
:101F7000D842000808B5302383F31188FFF7D2FE5A
:101F8000002383F3118808BD2DE9F041436A04461C
:101F9000986800F0E050B0F1E05F0E4622D0F8B152
:101FA000302383F31188002504F5845741F290080B
:101FB00004EB451343441B791A0706D50135032D5D
:101FC00007F12007F4D1012007E05B07F6D439467A
:101FD000304600F08BFA0028F0D1002383F31188FB
:101FE000BDE8F0810120FBE708B5302383F31188B9
:101FF00000F58050C06EFFF725FB002383F31188A6
:1020000043090CBF0120002008BD0000F8B51D46A3
:10201000002313700F4606461446FFF7E5FF80F0D5
:102020000100387025B129463046FFF7ADFF20701A
:10203000F8BD00002DE9B8410C4615461F46804604
:1020400000F0B2F90B462178024609B9287850B160
:102050004046FFF763FFFFF78DFF3B462A462146C8
:10206000FFF7D4FF0120BDE8B881000070B530262D
:1020700086F31188174B9A6D42F000729A659A6B3D
:1020800042F000729A639A6B22F000729A63002306
:1020900083F3118800F5805494F8D83013F00105CB
:1020A00016D1A9B186F311880321132001F042FA59
:1020B0000321142001F03EFA0321152001F03AFA21
:1020C00094F8D83043F0010384F8D83085F31188B0
:1020D00070BD00BF001002402DE9F04700F58055AB
:1020E00088B095F8E030012B04468846164600F289
:1020F0008280824F57F823200AB947F82300D7F887
:1021000000A0C4F81C8084F82060BAF1000F64D0ED
:1021100095F8E030012B70D001212046FFF7A6FF93
:10212000302383F31188626A136823F0020313607B
:10213000626A136843F001031360636A00275F61FA
:1021400087F3118801212046FFF7D6FD002800F013
:102150009580E86EFFF764FA04F58359BA4609F1F1
:102160001809202200216846FEF754FF02A8FFF755
:1021700059FCCDF818A06A4609EB07030DF1180EBB
:102180009446BCE80300F44518605960624603F1C8
:102190000803F5D1DCF80000186020379CF8042013
:1021A0001A71602FDDD195F8D8306FF382030027C4
:1021B00085F8D8306A4641462046ADF80070ADF843
:1021C00002708DF80470FFF73BFD636A48BB4FF463
:1021D00000421A6008B0BDE8F08741F2E800FFF75E
:1021E0004FFB814610B15146FFF7C6FCC7F800907F
:1021F000B9F1000F8CD10020ECE7386803681B6B45
:1022000098470146002887D13868FFF72FFF3868C4
:10221000036832465B684146984700287FF47CAFEC
:10222000E9E761221A609DF802309DF803201B0641
:10223000120402F4702203F040731343BDF800202F
:10224000C2F3090213439DF804201205022E02F482
:10225000E0020CBF4FF0004100211343626A0B43C0
:10226000D361636A13225A61626A136823F001031F
:10227000136039462046FFF73FFD08B9636AA6E7B9
:1022800095F8E03093BB616AD1F8002242F0010278
:10229000C1F80022616AD1F8002222F47C5222F0B7
:1022A0000E02C1F80022616AD1F8002242F4606295
:1022B000C1F80022626AC2F81432626AC2F80432BB
:1022C000626A41F6FF71C2F80C12626AC2F84032CB
:1022D000626AC2F84432636A0122C3F81C22626A4D
:1022E000D2F8003223F00103C2F8003295F8D8305A
:1022F00043F0020385F8D8306CE700BF283800208F
:1023000008B500F051F850EA0103024602D0421E1F
:1023100061F10001044B186810B10B46FFF724FD72
:10232000BDE8084001F0C8B82838002008B50020F2
:10233000FFF7DCFDBDE8084001F0BEB808B501209C
:10234000FFF7D4FDBDE8084001F0B6B800B59BB07A
:10235000EFF3098168226846FEF74AFEEFF3058332
:10236000014B9B6BFEE700BF00ED00E008B5FFF7F7
:10237000EDFF000000B59BB0EFF3098168226846CD
:10238000FEF736FEEFF30583014B5B6BFEE700BF04
:1023900000ED00E0FEE700000FB408B5029801F080
:1023A0007DF9FEE701F058BC01F03ABC0139C9B231
:1023B00002299EBF00EBC1000023C0E90133704732
:1023C0002DE9F8431E461B885B070546884618D44E
:1023D000044600F118094C4513D063686BB12B68B3
:1023E0002846DB6B98473388A768C1B243F00403E3
:1023F00060684246B8470834EDE7A368002BEED189
:10240000F9E70120BDE8F88373B56C4684E806005F
:10241000014600224E68D5B26EB98E685EB900EBF7
:10242000C200021D94E80300013582E803001D701C
:10243000012002B070BD0132032A01F10801E9D187
:102440000020F6E72DE9F04F2DED028B89B09FEDCE
:10245000258BBDF8508004468B46054600F11809CF
:10246000002708F0040AA94536D06B680BB9AB68A1
:1024700063B1BAF1000F0BD123682046DB6B98479C
:102480004346C1B25A46D5E90106B0470835EAE7E6
:10249000002FFBD18DED008BADF808705B4603AAD1
:1024A0000BF1080C18685968174603C708336345D1
:1024B0003A46F7D1186838609B88BB80FFF774FFF5
:1024C0000423ADF808302368CDE900011B6C694690
:1024D000204698470127D9E7012009B0BDEC028BBF
:1024E000BDE8F08F000000000000000030B5036878
:1024F0000968DD0FB5EBD17F23F0604421F0604225
:102500004FEAD1700BD0002BB8BFA40C0029B8BF84
:10251000920C944202D034BF0120002030BD94427E
:1025200005D1C1F38070C3F380738342F6D1944226
:102530002CBF00200120F1E72DE9F041456A15B9D3
:102540004162BDE8F0814B6823F06047C3F38A46DF
:102550004FEAD37EC3F3807816EA230638BF3E469F
:10256000AC462B465A68BEEBD27F22F060440AD0BC
:10257000002A18DAA40CB44217D19D420FD10D6085
:10258000DEE71346EEE7A74207D102F08044C2F32C
:10259000807242450BD054B1EFE708D2EDE7CCF89A
:1025A00000100B60CDE7B44201D0B442E5D81A6800
:1025B0009C46002AE5D11960C3E700002DE9F047E9
:1025C000089D01F007044FEAD508224405F00705ED
:1025D00000EBD1004FF47F49944201D1BDE8F08770
:1025E00004F0070705F0070A57453E4638BF564630
:1025F000C6F10806111B8E4228BF0E46E10808EB03
:10260000D50E415C13F80EC0B94029FA06F721FA3D
:102610000AF1FFB28CEA010147FA0AF739408CEA65
:10262000010C03F80EC034443544D5E780EA01209C
:10263000082341F2210201B24000002980B203F1D7
:10264000FF33B8BF504013F0FF03F4D170470000D0
:1026500038B50C468D18A54200D138BD14F8011BC1
:10266000FFF7E4FFF7E7000042684AB113684360F0
:102670004389818901339BB29942438138BF838169
:102680001046704770B588B0202204460D46684653
:102690000021FEF7BFFC20460495FFF7E5FF024648
:1026A00058B16B46054608AE1C4603CCB4422860C0
:1026B0006960234605F10805F6D1104608B070BDE3
:1026C000082817D909280CD00A280CD00B280CD0C0
:1026D0000C280CD00D280CD00E2814BF4020302020
:1026E00070470C2070471020704714207047182046
:1026F0007047202070470000082817D90C280CD9F3
:1027000010280CD914280CD918280CD920280CD939
:1027100030288CBF0F200E207047092070470A20F8
:1027200070470B2070470C2070470D207047000049
:102730002DE9F843078C072F04461ED9D0E90298EB
:1027400000254FF6FF73C5F12006A5F1200029FAF8
:1027500005F108FA06F628FA00F031430143C9B240
:102760001846FFF763FF0835402D0346EBD1E169BA
:102770003A46BDE8F843FFF76BBF4FF6FF70BDE880
:10278000F883000010B54B6823B9CA8A63F30902C5
:10279000CA8210BD04691A681C600361C38A013BC8
:1027A000C3824A60EFE700002DE9F84F1D46CB8A4F
:1027B0000F46C3F309010529814692460B4630D0E6
:1027C0000020AAB207F11A049EB2042E1FFA80F864
:1027D0000FD8904503F1010306D3FB8A0A4462F344
:1027E0000903FB8201201AE01AF80060E654013068
:1027F000EAE79045F1D2A1F1050B1C237C68BBFBF5
:10280000F3F203FB12BB1FFA8BF6002C45D14846AE
:10281000FFF72AFF044638B978606FF00200BDE880
:10282000F88F4FF00008E6E7002606607860ADB24A
:102830004FF0000B454510D90AEB0803221D13F891
:10284000011B9155B1B208F101081B291FFA88F844
:102850002BD0454506F10106F1D8FB8AC3F30902E6
:10286000154465F30903BCE7013292B21C462368A4
:10287000002BF9D16B1F0B441C21B3FBF1F3013387
:102880009BB29A42D3D2BBF1000FD0D14846FFF79A
:10289000EBFE20B9C4F800B0BFE70122E7E7C0F8BB
:1028A00000B05E4620600446C1E74545D5D948469C
:1028B000FFF7DAFE08B92060AFE7C0F800B00026E5
:1028C00020600446B6E700002DE9F04F2DED028BA5
:1028D0001C4683B05B69019207468846002B00F0D6
:1028E000A780238C2BB1E269002A00F0A180072B7E
:1028F00035D807F10C00FFF7B7FE054638B96FF081
:102900000205284603B0BDEC028BBDE8F08F14220F
:102910000021FEF77FFB228CE16905F10800FEF73C
:1029200067FB208C013080B2FFF7E6FEFFF7C8FEA0
:10293000013880B22084013028746369228C1B78AE
:102940002A4403F01F0363F03F0348F00041137271
:10295000384669602946FFF7EFFD0125D1E70233CC
:102960009BB20722C18A0633B3FBF2F3828A521A62
:102970009BB292B29342C2D800F10C034FF000090F
:1029800008EE103A4FF0800A4E464D4618EE100AF7
:10299000FFF76AFE83460028B1D014220021FEF71B
:1029A00039FB002E3AD1019BABF8083002220BF123
:1029B000080E1FFA82FC0CF10100BCF1060F218CFD
:1029C00080B201D88E422BD3FFF796FEFFF778FE38
:1029D00062691278013802F01F028E4208BF4FF080
:1029E000400A42EA49121BFA80F14AEA020A01301F
:1029F00048F0004281F808A08BF81000CBF80420C2
:102A000059463846FFF798FD238C0135B3422DB265
:102A100089F001094FF0000AB8D172E70022C6E739
:102A2000E169895D0EF802100136B6B20132C0E7E5
:102A30006FF0010565E70000F8B515460E46302237
:102A4000002104461F46FEF7E5FA069B6360B5F5D4
:102A5000001F079BA76034BF6A094FF6FF72A3628D
:102A600097B2E66104F1100000239A4206D80023D1
:102A70000360A782E3822383E360F8BD066001332D
:102A800030462036F1E7000003781BB94BB2002B2B
:102A9000C8BF01707047000000787047F8B50C4659
:102AA000C969074611B9238C002B37D1257E1F2D0C
:102AB00034D8387828BB228C072A2CD8268A36F0BE
:102AC00003032BD14FF6FF70FFF7C2FD20F001008A
:102AD0003102400441EA0561400C41EA40254FF6CD
:102AE000FF72234629463846FFF7EEFE002807DD31
:102AF000626913780133DBB21F2B88BF0023137088
:102B0000F8BD218A2D0645EA012505432046FFF739
:102B10000FFE0246E5E76FF00300F1E76FF00100FA
:102B2000EEE7000070B58AB0044616460021282260
:102B300068461D46FEF76EFABDF83830ADF8103025
:102B40000F9B05939DF840308DF81830119B07932B
:102B50006946BDF84830ADF820302046CDE9026521
:102B6000FFF79CFF0AB070BD2DE9F041D36905461F
:102B70000C4616460BB9138C5BBB377E1F2F28D82B
:102B800095F80080B8F1000F26D03046FFF7D0FD51
:102B90003378210241EAC33141EA0801338A41EA2C
:102BA000076141EA03410246334641F0800128466D
:102BB000FFF78AFE00280ADD3378012B07D17269FE
:102BC00013780133DBB21F2B88BF00231370BDE8DD
:102BD000F0816FF00100FAE76FF00300F7E7000003
:102BE000F0B58BB004460D461746002128226846F2
:102BF0001E46FEF70FFA9DF84C305A1E53425341C1
:102C00008DF800309DF84030ADF81030119B0593E1
:102C10009DF848308DF81830149B07936A46BDF82C
:102C20005430ADF8203029462046CDE90276FFF732
:102C30009BFF0BB0F0BD0000406A00B1043070474C
:102C4000436A1A68426202691A600361C38A013BDF
:102C5000C38270472DE9F041D0F82080194E144608
:102C60001D464146002709B9BDE8F081D1E902239C
:102C7000A21A65EB0303964277EB03031ED2036AA5
:102C80008B420DD1FFF77EFD036A1B680362036967
:102C90000B60C38A0161016A013BC3828846E2E797
:102CA000FFF770FD0B68C8F8003003690B60C38A3A
:102CB0000161013BC382D8F80010D4E78846096857
:102CC000D1E700BF80841E002DE9F04F8BB00D4688
:102CD000DDF8509014469B468046002800F019818C
:102CE000B9F1000F00F01581531E3F2B00F2118146
:102CF000012A03D1BBF1000F40F00B810023CDE985
:102D00000833B8F81430B5EBC30F4FEAC30703D349
:102D100000200BB0BDE8F08F2B199F42D8F80C3083
:102D20003ABF7F1BFFB227461BB9D8F81030002BE3
:102D30007AD0272D4ED8C5F12806B7424FF00003B0
:102D40002CBFF6B23E4600932946D8F8080008ABDF
:102D50003246FFF733FCA7EB060A35445FFA8AFADE
:102D6000B8F8143003F10053053BDB000493D8F8A6
:102D70000C3003932821039B13B1BAF1000F2CD11F
:102D8000D8F8100040B1BAF1000F05D0009608AB9A
:102D90005246691AFFF712FC38B2002FB8D0660706
:102DA0000AD00AAB03EBD401624211F8083C02F0EE
:102DB0000702134101F8083C082C3CD9102C40F2C2
:102DC000B580202C40F2B780BBF1000F00F09C8052
:102DD000082334E0BA460026C2E7049BE02B28BF54
:102DE000E02306930B44AB42059314D95A1B039876
:102DF0000096924534BF5246D2B2691A08AB0430ED
:102E00000792FFF7DBFB079A1644AAEB020A154468
:102E1000F6B25FFA8AFA049B069A05999B1A049304
:102E2000039B1B680393A6E70093D8F8080008AB40
:102E30003A462946AEE7BBF1000F13D00123B4EBAD
:102E4000C30F6CD0082C12D89DF82030621E23FAD4
:102E500002F2D50706D54FF0FF3202FA04F42343FD
:102E60008DF820309DF8203089F8003051E7102C83
:102E700012D8BDF82030621E23FA02F2D10706D51F
:102E80004FF0FF3202FA04F42343ADF82030BDF8CE
:102E90002030A9F800303CE7202C0FD80899631E99
:102EA00021FA03F3DA0705D54FF0FF3202FA04F4F2
:102EB0000C430894089BC9F800302AE7402C2BD01B
:102EC000DDE90865611EC4F12102A4F1210326FA9F
:102ED00001F105FA02F225FA03F311431943CB0776
:102EE00012D50122A4F12003C4F1200102FA03F358
:102EF00022FA01F1A240524243EA010363EB430389
:102F000032432B43CDE90823DDE90823C9E9002337
:102F1000FFE66FF00100FCE66FF00800F9E6082C10
:102F2000A0D9102CB3D9202CEED8C3E7BBF1000FE9
:102F3000ADD0022383E7BBF1000FBBD004237EE7B3
:102F400030B5012A144638BF0124402C85B028BF73
:102F500040240025012ACDE9025518D81B788DF8A8
:102F6000083063070AD004AB03EBD405624215F8BE
:102F7000083C02F00702934005F8083C0091034624
:102F80002246002102A8FFF719FB05B030BD082A30
:102F9000E4D9102A03D81B88ADF80830E1E7202ACD
:102FA0008DBFD3E900231B680293CDE90223D8E744
:102FB00010B5CB681BB98B600B618B8210BD0469A7
:102FC0001A681C600361C38A013BC382CA60F0E7D0
:102FD00003064CBFC0F3C0300220704708B502465C
:102FE000FFF7F6FF022806D15306C2F30F2001D1E6
:102FF00000F0030008BDC2F30740FBE72DE9F04FE6
:1030000093B0CDE904230A6804461046FFF7E0FFB9
:10301000022814BFC2F306260026002A0D46824667
:1030200080F2028212F0C04940F0FE81097B002943
:1030300000F0FA81022803D02378B34240F0F781F0
:10304000C2F304630693104602F07F030393FFF775
:10305000C5FF039B29444FEA834848EA0A4848EAE7
:103060004668CE7800230022CDE90823F309834681
:1030700048EA0008029367D0039B00930246676802
:10308000534608A92046B847002868D0276A4FB998
:10309000414604F10C00FFF7F5FA074690B96FF0CE
:1030A00002006AE03B6998450DD03F68002FF9D1D6
:1030B000414604F10C00FFF7E5FA07460028EED080
:1030C000236A3B60276297F817C006F01F08CCF30D
:1030D000840CACEB08001FFA80FE0028B8BF0EF18C
:1030E0002000A8EB0C031FFA83FED7E90221B8BF2A
:1030F00000B2002B0793BEBF0EF120031BB2079353
:1031000052EA010342D0049BDFF834E39A1A059B8C
:103110004FF0000C63EB010196457CEB010335D3C6
:103120006B7B97F81AE0734521D1029B002B00F0CE
:10313000848001282ADC786840BBDFF800C394450E
:1031400070EB010343D21EE0276A5FB9039B009333
:10315000656853465A4608A92046A84768BB6FF0E1
:103160000B000AE03B699845ADD03F68EDE7B348F6
:1031700090427CEB010303D3002013B0BDE8F08F35
:10318000029B002BF8D0079B0F2B19DCFA7DB300B4
:1031900002F0030203F07C031343FB75394620461B
:1031A000FFF7F0FA6B7BBB76029B4BB9FB7DC3F359
:1031B0008402013262F38603FB756FF00C00DCE7DA
:1031C0006A7BBB7E9A42D7D1029B002B35D0B309D4
:1031D000022B32D0049BBB60059BFB6014220021B4
:1031E0000DA8FDF717FF049B0A93059B0B932B1D5E
:1031F0000C932B7BADF83EB0013BDBB2ADF83C301D
:10320000069B8DF84230039B8DF8433094F82C30A8
:103210008DF840A083F001038DF844308DF8418093
:10322000A3680AA920469847FB7DC3F384030133B2
:1032300003F01F039B02FB829EE7FB7DC6F3401257
:10324000B2EBD31F40F0F680C3F38403434540F054
:10325000F980029A2B7BB609002A52D016F001069B
:1032600061D1032B40F2F180049BBB60059BFB60A6
:10327000FB8A66F30903FB822B7BAE1D033BDBB2AB
:103280003246394604F10C00FFF78EFA00280CDABA
:1032900039462046FFF776FAFB7DC3F384030133FA
:1032A00003F01F039B02FB82F9E6DDE90884AB888B
:1032B0003B834FF6FF73C9F12000A9F1200228FAE1
:1032C00009F104FA00F0014324FA02F2114318460E
:1032D000C9B2FFF7ABF909F10809B9F1400F03468C
:1032E000E9D1B8822A7B033AD2B23146FFF7B0F96E
:1032F000FB7DB882DA43C2F3C01262F3C713FB75D9
:103300003AE786B92E1D013BDBB23246394604F15D
:103310000C00FFF749FA0028BADB2A7BB88A013A89
:10332000D2B23146E2E7F98AC1F30901013B04292F
:10333000DAB25BD8281D002307F11B069A4208D990
:1033400010F801CB06F801C0013101330529DBB2C9
:10335000F4D104990A9105990B91934207F11B014D
:103360000C9138BF043379680D9134BF55FA83F35B
:1033700000230E93FB8AADF83EB0C3F309031A4451
:10338000069B8DF84230039B8DF8433094F82C3027
:10339000ADF83C2083F001038DF8443000238DF814
:1033A00040A08DF841807B602A7BB88A013A291DB4
:1033B000FFF74EF93B8BB882834203D1A3680AA979
:1033C0002046984720460AA9FFF7F2FDFB7DBA8AFE
:1033D000C3F38403013303F01F039B02FB823B8B87
:1033E0009A420CBF00206FF01000C6E67B68002BED
:1033F000AFD0052001E01C3033461E68002EFAD104
:10340000091A081D2E1D184401EB090CBCF11B0FF5
:103410005FFA89F39DD89A429BD916F8013B00F8D0
:10342000013B09F10109EFE76FF00900A5E66FF034
:103430000A00A2E66FF00D009FE600BF40420F00B9
:1034400080841E006FF00E0097E66FF00F0094E688
:10345000EFF3098305494A6B22F001024A6368339E
:1034600083F30988002383F31188704700EF00E09D
:10347000302080F3118862B60C4B0D4AD96821F4D4
:10348000E0610904090C0A43DA60D3F8FC20094919
:1034900042F08072C3F8FC200A6842F001020A6020
:1034A0002022DA7783F82200704700BF00ED00E0A9
:1034B0000003FA05001000E010B5302383F31188F3
:1034C0000E4B5B6813F4006314D0F1EE103AEFF387
:1034D0000984683C4FF08073E361094BDB6B236622
:1034E00084F3098800F0A4F810B1064BA36110BD65
:1034F000054BFBE783F31188F9E700BF00ED00E01F
:1035000000EF00E0FF020008020300084FF0E02394
:10351000002258684FF0FF31930003F1604303F538
:10352000614301329042C3F88010C3F88011F3D296
:103530007047000000F1604303F561430901C9B21F
:1035400083F80013012200F01F039A4043099B00F7
:1035500003F1604303F56143C3F880211A607047AB
:1035600000230375826803691B6899689142FBD246
:103570005A6803604260106058607047002303750A
:10358000826803691B6899689142FBD85A68036096
:10359000426010605860704708B50846302383F3D6
:1035A00011880B7D032B05D0042B0DD02BB983F391
:1035B000118808BD8B6900221A604FF0FF338361C8
:1035C000FFF7CEFF0023F2E7D1E9003213605A6023
:1035D000F3E70000FFF7C4BF054BD968087518680A
:1035E00002681A60536001220275D860FCF772BE4F
:1035F0003838002030B50C4BDD684B1C87B00446D2
:103600000FD02B46094A684600F02AF92046FFF7FA
:10361000E3FF009B13B1684600F02CF9A86907B0DE
:1036200030BDFFF7D9FFF9E7383800209935000899
:10363000044B1A68DB6890689B68984294BF00202E
:103640000120704738380020084B10B51C68D86836
:1036500022681A60536001222275DC60FFF78EFF3A
:1036600001462046BDE81040FCF734BE3838002043
:1036700038B5074C074908480123002523706560C9
:1036800000F0EAFB0223237085F3118838BD00BFE8
:10369000603A0020344300083838002008B572B67C
:1036A000044B186500F0ACFA00F058FB024B032203
:1036B0001A70FEE738380020603A002000F010B998
:1036C0008B60022308618B82084670478368A3F1F0
:1036D000840243F8142C026943F8442C426943F8ED
:1036E000402C094A43F8242CC26843F8182C0222C3
:1036F00003F80C2C002203F80B2C044A43F8102C7E
:10370000A3F12000704700BFED0200083838002008
:1037100008B5FFF7DBFFBDE80840FFF75BBF00001F
:10372000024BDB6898610F20FFF756BF3838002046
:10373000302383F31188FFF7F3BF000008B501467B
:10374000302383F311880820FFF754FF002383F30D
:10375000118808BD10B503689C68A2420CD85C684B
:103760008A600B604C602160596099688A1A9A607F
:103770004FF0FF33836010BD1B68121BECE70000A5
:103780000A2938BF0A2170B504460D460A26601979
:1037900000F05CFB00F048FB041BA54203D8751C3D
:1037A0002E460446F3E70A2E04D9BDE870400120F6
:1037B00000F092BB70BD0000F8B5144B0D46D96106
:1037C00003F1100141600A2A1969826038BF0A2298
:1037D000016048601861A818144600F029FB0A2708
:1037E00000F022FB431BA342064606D37C1C28198B
:1037F00000F02CFB27463546F2E70A2F04D9BDE836
:10380000F840012000F068BBF8BD00BF3838002048
:10381000F8B506460D4600F007FB0F4A134653F86D
:10382000107F9F4206D12A4601463046BDE8F84047
:10383000FFF7C2BFD169BB68441A2C1928BF2C46B8
:10384000A34202D92946FFF79BFF2246314603488F
:10385000BDE8F840FFF77EBF383800204838002028
:1038600010B4C0E9032300235DF8044B4361FFF764
:10387000CFBF000010B5194C236998420DD0D0E994
:103880000032816813605A609A680A449A60002383
:1038900003604FF0FF33A36110BD2346026843F875
:1038A000102F53600022026022699A4203D1BDE8C2
:1038B000104000F0C5BA936881680B44936000F033
:1038C000B3FA2269E1699268441AA242E4D9114428
:1038D000BDE81040091AFFF753BF00BF3838002079
:1038E0002DE9F047DFF8BC8008F110072C4ED8F81E
:1038F000105000F099FAD8F81C40AA68031B9A42AD
:103900003ED81444D5E900324FF00009C8F81C40F5
:1039100013605A60C5F80090D8F81030B34201D156
:1039200000F08EFA89F31188D5E9033128469847CB
:10393000302383F311886B69002BD8D000F074FA20
:103940006A69A0EB04094A4582460DD2022000F0C4
:10395000C3FA0022D8F81030B34208D151462846A5
:10396000BDE8F047FFF728BF121A2244F2E712EB36
:10397000090938BF4A4629463846FFF7EBFEB5E746
:10398000D8F81030B34208D01444211AC8F81C00EB
:10399000A960BDE8F047FFF7F3BEBDE8F08700BFC0
:1039A000483800203838002038B500F03DFA054A84
:1039B000D2E90845031B181945F10001C2E90801C5
:1039C00038BD00BF3838002000207047FEE70000F7
:1039D000704700004FF0FF3070470000BFF34F8F7B
:1039E000024A1369DB03FCD4704700BF0020024089
:1039F00008B5094B1B7873B9FFF7F0FF074B5A69FD
:103A0000002ABFBF064A9A6002F188329A601A689B
:103A100022F480621A6008BD783A0020002002403B
:103A20002301674508B50B4B1B7893B9FFF7D6FF09
:103A3000094B5A6942F000425A611A6842F48052B6
:103A40001A601A6822F480521A601A6842F480627E
:103A50001A6008BD783A0020002002407F289ABFF3
:103A600000F58030C0020020704700004FF4006075
:103A700070470000802070477F2808B50BD8FFF7FB
:103A8000EDFF00F500630268013204D10430834287
:103A9000F9D1012008BD0020FCE700007F2810B507
:103AA00004461FD8FFF79AFFFFF7A2FF0E4BF32241
:103AB0001A6102225A615A6942EAC0025A615A697D
:103AC00042F480325A61FFF789FF4FF40061FFF73B
:103AD000C5FF00F03FF9FFF7A5FF2046BDE8104005
:103AE000FFF7CABF002010BD002002402DE9F843B7
:103AF00040EA020313F00703144606D0304B4FF49C
:103B000061721A600020BDE8F88385182D4A95423D
:103B10000CD92B4A40F289311160F3E7031D1B6871
:103B20004A68934208D1083C08300831072C14D960
:103B300002680B689A42F1D0FFF75AFFFFF74EFF79
:103B4000214E08314FF001084FF00009012CA1F17E
:103B5000080706D8FFF766FF01E0002CECD1012032
:103B6000D1E7C6F81480054651F8083C45F8043BF7
:103B700051F8043C4360FFF731FF336943F0010320
:103B80003361C6F81490026851F8083C9A420CD090
:103B90000B4B40F2B1321A600C4B18600C4B1C609E
:103BA0000C4B1F60FFF73EFFACE72D6851F8043C5B
:103BB0009D4201F10801EBD1083C0830C6E700BF87
:103BC000743A00200000040800200240683A0020F7
:103BD000703A00206C3A0020084908B50B7828B1EB
:103BE0001BB9FFF705FF01230B7008BD002BFCD0AC
:103BF000BDE808400870FFF715BF00BF783A002005
:103C000002484FF47F4100F0A7B800BF0001002038
:103C10000846114600F0E8BA084600F0FBBA00007A
:103C200038B5EFF311859DB9EFF30584C4F30804AB
:103C3000302334B183F31188FFF7B6FE85F3118882
:103C400038BD83F31188FFF7AFFE84F3118838BDC8
:103C5000BDE83840FFF7A8BE38B5FFF7E1FF114CCB
:103C6000114AC00840EA4170A0FB025EC908A0FBEF
:103C7000040C1CEB050CA1FB04404FF000035B415E
:103C8000A1FB02121CEB040C43EB000011EB0E0134
:103C900042F10002411842F10000090941EA0070B6
:103CA00038BD00BFCFF753E3A59BC42010B5024435
:103CB000064BD2B2904200D110BD441C00B253F862
:103CC000200041F8040BE0B2F4E700BF50280040A8
:103CD000114B30B5D3F89040240409D4D3F8904068
:103CE000C3F89040D3F8904044F40044C3F89040A7
:103CF0000A4C236843F4807323600244084BD2B219
:103D0000904200D130BD441C00B251F8045B43F82E
:103D10002050E0B2F4E700BF001002400070004005
:103D20005028004007B5012201A90020FFF7BEFF7F
:103D3000019803B05DF804FB13B50446FFF7F2FFEA
:103D4000A04205D0012201A900200194FFF7C0FF85
:103D500002B010BD704700007047000070470000BF
:103D6000074B45F255521A6003225A6040F2FF7227
:103D70009A604CF6CC421A60024B01221A707047CE
:103D800000300040803A0020034B1B781BB1034BEE
:103D90004AF6AA221A607047803A0020003000409C
:103DA000054B1A6832B902F1804202F50432D2F8AA
:103DB00094201A60704700BF7C3A0020024B4FF4F9
:103DC0000002C3F8942070470010024008B5FFF7C6
:103DD000E7FF024B1868C0F3407008BD7C3A002032
:103DE00070470000FEE700000A4B0B480B4A904268
:103DF0000BD30B4BDA1C121AC11E22F003028B42AA
:103E000038BF00220021FDF705B953F8041B40F824
:103E1000041BECE7CC430008843A0020843A0020DD
:103E2000843A002000F0BEB84FF08043586A7047D3
:103E30004FF08043002258631A610222DA60704713
:103E40004FF080430022DA60704700004FF080435B
:103E500058637047FEE7000070B51B4B01630025F7
:103E6000044686B0586085620E46FFF701FB04F1F8
:103E70001003C4E904334FF0FF33C4E90635C4E945
:103E80000044A560E562FFF7CFFF2B460246C4E978
:103E9000082304F134010D4A256580232046FFF7ED
:103EA0000FFC0123E0600A4A0375009272680192D8
:103EB000B268CDE90223074B6846CDE90435FFF728
:103EC00027FC06B070BD00BF603A002040430008E8
:103ED00045430008553E0008024AD36A1843D062A1
:103EE000704700BF38380020244B2548DA6A42F07A
:103EF000070210B4DA62DA6A224C22F00702DA62B0
:103F0000DA6ADA6C42F00702DA64DA6E42F007022B
:103F1000DA664FF09042DB6E4FF0AA310023536017
:103F20009160D0604FF6FF7050611362536214606D
:103F30001024C2F80434C2F80814C2F80C444FF636
:103F4000F774C2F814449924C2F82034C2F8244407
:103F50000D4CC2F80044C2F80438C2F80818C2F880
:103F60000C38C2F81408C2F82038C2F82438C2F855
:103F700000385DF8044B00F055B800BF0010024057
:103F8000000100240001002850000A0008B500F0DC
:103F900017F9FFF76DFBBDE80840FFF701BF000010
:103FA000704700000F4B9A6D42F001029A659A6FBC
:103FB00042F001029A670C4A9B6F936843F0010339
:103FC00093604FF080434F229A624FF0FF32DA62E3
:103FD00000229A615A63DA605A6001225A611A60BB
:103FE000704700BF00100240002004E04FF0804204
:103FF00008B51169D3680B40D9B2C9439B07116159
:1040000007D5302383F31188FFF758FB002383F390
:10401000118808BD08B5FFF779FABDE8084000F03F
:10402000CBB800005A4B4FF0FF319A6A99629A6AF6
:1040300000229A62986AD86A60F00700D862D86A4B
:1040400000F00700D862D86A186B1963186B1A63FE
:10405000186B986B9963986B9A63986BD86BD9635C
:10406000D86BDA63D86B186C1964196C1A641A6C03
:10407000484A4FF4E06111601A6E474942F001026C
:104080001A66D3F8802022F00102C3F88020D3F80A
:1040900080209A6D42F080529A659A6F22F0805289
:1040A0009A679A6F4FF440720A604A6912F480620C
:1040B000FBD14A601A6822F0F00242F060021A60F6
:1040C0001A6842F001021A601A689107FCD50022B2
:1040D0009A609A6812F00C02FBD1D3F8901011F498
:1040E000407F1EBF4FF48031C3F89010C3F890207A
:1040F00061221A601A689207FCD500229A609A68B9
:1041000012F00C0FFBD169221A60D3F8942022F42C
:10411000706242F4C062C3F894201A6842F480329C
:104120001A601A689003FCD5D3F8902022F003227D
:10413000C3F89020194ADA601A6842F080721A6057
:104140001A689101FCD5164A1A611A6842F0806219
:104150001A601A681201FCD500229A600D49114AB2
:10416000C3F888200A6822F0070242F004020A60BD
:104170000A6802F00702042AFAD19A6842F00302A0
:104180009A609A6802F00C020C2AFAD1704700BFBC
:1041900000100240002002400070004003140001A3
:1041A000000C10005555013408B5FFF71FFFBDE89E
:1041B0000840FFF781B9000007211C20FFF7BAB9BA
:1041C00008B5FFF727FF00F007F8FFF7E9FEBDE8A5
:1041D0000840FFF727BE0000704700000B4601466D
:1041E000184600F009B80000024B0A46014618685C
:1041F000FFF70EBD1811002010B5054C13462CB169
:104200000A4601460220AFF3008010BD2046FCE7BD
:1042100000000000024B01461868FFF7FDBC00BF1C
:104220001811002010B501390244904201D100203C
:1042300005E0037811F8014FA34201D0181B10BD0F
:104240000130F2E72DE9F041A3B1C91A1778014412
:10425000044603F1FF3C8C42204601D9002009E0CE
:104260000578BD4204F10104F5D10CEB0405D61824
:10427000A54201D1BDE8F08115F8018D16F801EDD8
:10428000F045F5D0E7E70000034611F8012B03F8ED
:10429000012B002AF9D170476F72672E6172647525
:1042A00070696C6F742E4D6174656B4C34333100E2
:1042B00040A2E4F1646891060041A3E5F2656992C9
:1042C000070000004261642043414E496661636516
:1042D00020696E6465782E00800000000080000078
:1042E0000000800000000000000000009518000899
:1042F000D920000835200008D5180008E11800086A
:10430000ED1A0008A5180008B5180008A91800083B
:10431000B1180008AD180008091A0008B9180008FB
:1043200009240008AD230008C9180008DD19000899
:10433000633000003043000890380020603A0020CD
:104340006D61696E0069646C65000000000000002A
:1043500026040000000000000060030000000000D0
:10436000FE2A0100D20400001C1100200000000001
:10437000000000000000000000000000000000003D
:10438000000000000000000000000000000000002D
:10439000000000000000000000000000000000001D
:1043A000000000000000000000000000000000000D
:1043B00000000000000000000000000000000000FD
:0C43C000000000000000000000000000F1
:00000001FF
